{
  "contractName": "MyNFT",
  "abi": [
    {
      "inputs": [],
      "stateMutability": "nonpayable",
      "type": "constructor"
    },
    {
      "anonymous": false,
      "inputs": [
        {
          "indexed": true,
          "internalType": "address",
          "name": "owner",
          "type": "address"
        },
        {
          "indexed": true,
          "internalType": "address",
          "name": "approved",
          "type": "address"
        },
        {
          "indexed": true,
          "internalType": "uint256",
          "name": "tokenId",
          "type": "uint256"
        }
      ],
      "name": "Approval",
      "type": "event"
    },
    {
      "anonymous": false,
      "inputs": [
        {
          "indexed": true,
          "internalType": "address",
          "name": "owner",
          "type": "address"
        },
        {
          "indexed": true,
          "internalType": "address",
          "name": "operator",
          "type": "address"
        },
        {
          "indexed": false,
          "internalType": "bool",
          "name": "approved",
          "type": "bool"
        }
      ],
      "name": "ApprovalForAll",
      "type": "event"
    },
    {
      "anonymous": false,
      "inputs": [
        {
          "indexed": true,
          "internalType": "address",
          "name": "previousOwner",
          "type": "address"
        },
        {
          "indexed": true,
          "internalType": "address",
          "name": "newOwner",
          "type": "address"
        }
      ],
      "name": "OwnershipTransferred",
      "type": "event"
    },
    {
      "anonymous": false,
      "inputs": [
        {
          "indexed": true,
          "internalType": "address",
          "name": "from",
          "type": "address"
        },
        {
          "indexed": true,
          "internalType": "address",
          "name": "to",
          "type": "address"
        },
        {
          "indexed": true,
          "internalType": "uint256",
          "name": "tokenId",
          "type": "uint256"
        }
      ],
      "name": "Transfer",
      "type": "event"
    },
    {
      "inputs": [
        {
          "internalType": "address",
          "name": "to",
          "type": "address"
        },
        {
          "internalType": "uint256",
          "name": "tokenId",
          "type": "uint256"
        }
      ],
      "name": "approve",
      "outputs": [],
      "stateMutability": "nonpayable",
      "type": "function"
    },
    {
      "inputs": [
        {
          "internalType": "address",
          "name": "owner",
          "type": "address"
        }
      ],
      "name": "balanceOf",
      "outputs": [
        {
          "internalType": "uint256",
          "name": "",
          "type": "uint256"
        }
      ],
      "stateMutability": "view",
      "type": "function",
      "constant": true
    },
    {
      "inputs": [
        {
          "internalType": "uint256",
          "name": "tokenId",
          "type": "uint256"
        }
      ],
      "name": "getApproved",
      "outputs": [
        {
          "internalType": "address",
          "name": "",
          "type": "address"
        }
      ],
      "stateMutability": "view",
      "type": "function",
      "constant": true
    },
    {
      "inputs": [
        {
          "internalType": "address",
          "name": "owner",
          "type": "address"
        },
        {
          "internalType": "address",
          "name": "operator",
          "type": "address"
        }
      ],
      "name": "isApprovedForAll",
      "outputs": [
        {
          "internalType": "bool",
          "name": "",
          "type": "bool"
        }
      ],
      "stateMutability": "view",
      "type": "function",
      "constant": true
    },
    {
      "inputs": [],
      "name": "name",
      "outputs": [
        {
          "internalType": "string",
          "name": "",
          "type": "string"
        }
      ],
      "stateMutability": "view",
      "type": "function",
      "constant": true
    },
    {
      "inputs": [],
      "name": "owner",
      "outputs": [
        {
          "internalType": "address",
          "name": "",
          "type": "address"
        }
      ],
      "stateMutability": "view",
      "type": "function",
      "constant": true
    },
    {
      "inputs": [
        {
          "internalType": "uint256",
          "name": "tokenId",
          "type": "uint256"
        }
      ],
      "name": "ownerOf",
      "outputs": [
        {
          "internalType": "address",
          "name": "",
          "type": "address"
        }
      ],
      "stateMutability": "view",
      "type": "function",
      "constant": true
    },
    {
      "inputs": [],
      "name": "renounceOwnership",
      "outputs": [],
      "stateMutability": "nonpayable",
      "type": "function"
    },
    {
      "inputs": [
        {
          "internalType": "address",
          "name": "from",
          "type": "address"
        },
        {
          "internalType": "address",
          "name": "to",
          "type": "address"
        },
        {
          "internalType": "uint256",
          "name": "tokenId",
          "type": "uint256"
        }
      ],
      "name": "safeTransferFrom",
      "outputs": [],
      "stateMutability": "nonpayable",
      "type": "function"
    },
    {
      "inputs": [
        {
          "internalType": "address",
          "name": "from",
          "type": "address"
        },
        {
          "internalType": "address",
          "name": "to",
          "type": "address"
        },
        {
          "internalType": "uint256",
          "name": "tokenId",
          "type": "uint256"
        },
        {
          "internalType": "bytes",
          "name": "_data",
          "type": "bytes"
        }
      ],
      "name": "safeTransferFrom",
      "outputs": [],
      "stateMutability": "nonpayable",
      "type": "function"
    },
    {
      "inputs": [
        {
          "internalType": "address",
          "name": "operator",
          "type": "address"
        },
        {
          "internalType": "bool",
          "name": "approved",
          "type": "bool"
        }
      ],
      "name": "setApprovalForAll",
      "outputs": [],
      "stateMutability": "nonpayable",
      "type": "function"
    },
    {
      "inputs": [
        {
          "internalType": "bytes4",
          "name": "interfaceId",
          "type": "bytes4"
        }
      ],
      "name": "supportsInterface",
      "outputs": [
        {
          "internalType": "bool",
          "name": "",
          "type": "bool"
        }
      ],
      "stateMutability": "view",
      "type": "function",
      "constant": true
    },
    {
      "inputs": [],
      "name": "symbol",
      "outputs": [
        {
          "internalType": "string",
          "name": "",
          "type": "string"
        }
      ],
      "stateMutability": "view",
      "type": "function",
      "constant": true
    },
    {
      "inputs": [
        {
          "internalType": "uint256",
          "name": "tokenId",
          "type": "uint256"
        }
      ],
      "name": "tokenURI",
      "outputs": [
        {
          "internalType": "string",
          "name": "",
          "type": "string"
        }
      ],
      "stateMutability": "view",
      "type": "function",
      "constant": true
    },
    {
      "inputs": [
        {
          "internalType": "address",
          "name": "from",
          "type": "address"
        },
        {
          "internalType": "address",
          "name": "to",
          "type": "address"
        },
        {
          "internalType": "uint256",
          "name": "tokenId",
          "type": "uint256"
        }
      ],
      "name": "transferFrom",
      "outputs": [],
      "stateMutability": "nonpayable",
      "type": "function"
    },
    {
      "inputs": [
        {
          "internalType": "address",
          "name": "newOwner",
          "type": "address"
        }
      ],
      "name": "transferOwnership",
      "outputs": [],
      "stateMutability": "nonpayable",
      "type": "function"
    },
    {
      "inputs": [],
      "name": "totalSupply",
      "outputs": [
        {
          "internalType": "uint256",
          "name": "",
          "type": "uint256"
        }
      ],
      "stateMutability": "view",
      "type": "function",
      "constant": true
    },
    {
      "inputs": [],
      "name": "contractURI",
      "outputs": [
        {
          "internalType": "string",
          "name": "",
          "type": "string"
        }
      ],
      "stateMutability": "pure",
      "type": "function",
      "constant": true
    },
    {
      "inputs": [
        {
          "internalType": "address",
          "name": "minter",
          "type": "address"
        },
        {
          "internalType": "string",
          "name": "tokenURI",
          "type": "string"
        }
      ],
      "name": "mintItem",
      "outputs": [
        {
          "internalType": "uint256",
          "name": "",
          "type": "uint256"
        }
      ],
      "stateMutability": "nonpayable",
      "type": "function"
    }
  ],
  "bytecode": "0x60806040523480156200001157600080fd5b506040518060400160405280600f81526020017f4d79204e465420436f6e747261637400000000000000000000000000000000008152506040518060400160405280600a81526020017f4d594e4654435452435400000000000000000000000000000000000000000000815250816000908051906020019062000096929190620001a6565b508060019080519060200190620000af929190620001a6565b505050620000d2620000c6620000d860201b60201c565b620000e060201b60201c565b620002bb565b600033905090565b6000600760009054906101000a900473ffffffffffffffffffffffffffffffffffffffff16905081600760006101000a81548173ffffffffffffffffffffffffffffffffffffffff021916908373ffffffffffffffffffffffffffffffffffffffff1602179055508173ffffffffffffffffffffffffffffffffffffffff168173ffffffffffffffffffffffffffffffffffffffff167f8be0079c531659141344cd1fd0a4f28419497f9722a3daafe3b4186f6b6457e060405160405180910390a35050565b828054620001b49062000285565b90600052602060002090601f016020900481019282620001d8576000855562000224565b82601f10620001f357805160ff191683800117855562000224565b8280016001018555821562000224579182015b828111156200022357825182559160200191906001019062000206565b5b50905062000233919062000237565b5090565b5b808211156200025257600081600090555060010162000238565b5090565b7f4e487b7100000000000000000000000000000000000000000000000000000000600052602260045260246000fd5b600060028204905060018216806200029e57607f821691505b60208210811415620002b557620002b462000256565b5b50919050565b6130ab80620002cb6000396000f3fe608060405234801561001057600080fd5b50600436106101215760003560e01c806370a08231116100ad578063b88d4fde11610071578063b88d4fde14610308578063c87b56dd14610324578063e8a3d48514610354578063e985e9c514610372578063f2fde38b146103a257610121565b806370a0823114610276578063715018a6146102a65780638da5cb5b146102b057806395d89b41146102ce578063a22cb465146102ec57610121565b8063110bcd45116100f4578063110bcd45146101c057806318160ddd146101f057806323b872dd1461020e57806342842e0e1461022a5780636352211e1461024657610121565b806301ffc9a71461012657806306fdde0314610156578063081812fc14610174578063095ea7b3146101a4575b600080fd5b610140600480360381019061013b9190611ccc565b6103be565b60405161014d9190611d14565b60405180910390f35b61015e6104a0565b60405161016b9190611dc8565b60405180910390f35b61018e60048036038101906101899190611e20565b610532565b60405161019b9190611e8e565b60405180910390f35b6101be60048036038101906101b99190611ed5565b6105b7565b005b6101da60048036038101906101d5919061204a565b6106cf565b6040516101e791906120b5565b60405180910390f35b6101f8610783565b60405161020591906120b5565b60405180910390f35b610228600480360381019061022391906120d0565b610794565b005b610244600480360381019061023f91906120d0565b6107f4565b005b610260600480360381019061025b9190611e20565b610814565b60405161026d9190611e8e565b60405180910390f35b610290600480360381019061028b9190612123565b6108c6565b60405161029d91906120b5565b60405180910390f35b6102ae61097e565b005b6102b8610a06565b6040516102c59190611e8e565b60405180910390f35b6102d6610a30565b6040516102e39190611dc8565b60405180910390f35b6103066004803603810190610301919061217c565b610ac2565b005b610322600480360381019061031d919061225d565b610ad8565b005b61033e60048036038101906103399190611e20565b610b3a565b60405161034b9190611dc8565b60405180910390f35b61035c610c8c565b6040516103699190611dc8565b60405180910390f35b61038c600480360381019061038791906122e0565b610cac565b6040516103999190611d14565b60405180910390f35b6103bc60048036038101906103b79190612123565b610d40565b005b60007f80ac58cd000000000000000000000000000000000000000000000000000000007bffffffffffffffffffffffffffffffffffffffffffffffffffffffff1916827bffffffffffffffffffffffffffffffffffffffffffffffffffffffff1916148061048957507f5b5e139f000000000000000000000000000000000000000000000000000000007bffffffffffffffffffffffffffffffffffffffffffffffffffffffff1916827bffffffffffffffffffffffffffffffffffffffffffffffffffffffff1916145b80610499575061049882610e38565b5b9050919050565b6060600080546104af9061234f565b80601f01602080910402602001604051908101604052809291908181526020018280546104db9061234f565b80156105285780601f106104fd57610100808354040283529160200191610528565b820191906000526020600020905b81548152906001019060200180831161050b57829003601f168201915b5050505050905090565b600061053d82610ea2565b61057c576040517f08c379a0000000000000000000000000000000000000000000000000000000008152600401610573906123f3565b60405180910390fd5b6004600083815260200190815260200160002060009054906101000a900473ffffffffffffffffffffffffffffffffffffffff169050919050565b60006105c282610814565b90508073ffffffffffffffffffffffffffffffffffffffff168373ffffffffffffffffffffffffffffffffffffffff161415610633576040517f08c379a000000000000000000000000000000000000000000000000000000000815260040161062a90612485565b60405180910390fd5b8073ffffffffffffffffffffffffffffffffffffffff16610652610f0e565b73ffffffffffffffffffffffffffffffffffffffff16148061068157506106808161067b610f0e565b610cac565b5b6106c0576040517f08c379a00000000000000000000000000000000000000000000000000000000081526004016106b790612517565b60405180910390fd5b6106ca8383610f16565b505050565b60006106d9610f0e565b73ffffffffffffffffffffffffffffffffffffffff166106f7610a06565b73ffffffffffffffffffffffffffffffffffffffff161461074d576040517f08c379a000000000000000000000000000000000000000000000000000000000815260040161074490612583565b60405180910390fd5b6107576008610fcf565b60006107636008610fe5565b905061076f8482610ff3565b61077981846111c1565b8091505092915050565b600061078f6008610fe5565b905090565b6107a561079f610f0e565b82611235565b6107e4576040517f08c379a00000000000000000000000000000000000000000000000000000000081526004016107db90612615565b60405180910390fd5b6107ef838383611313565b505050565b61080f83838360405180602001604052806000815250610ad8565b505050565b6000806002600084815260200190815260200160002060009054906101000a900473ffffffffffffffffffffffffffffffffffffffff169050600073ffffffffffffffffffffffffffffffffffffffff168173ffffffffffffffffffffffffffffffffffffffff1614156108bd576040517f08c379a00000000000000000000000000000000000000000000000000000000081526004016108b4906126a7565b60405180910390fd5b80915050919050565b60008073ffffffffffffffffffffffffffffffffffffffff168273ffffffffffffffffffffffffffffffffffffffff161415610937576040517f08c379a000000000000000000000000000000000000000000000000000000000815260040161092e90612739565b60405180910390fd5b600360008373ffffffffffffffffffffffffffffffffffffffff1673ffffffffffffffffffffffffffffffffffffffff168152602001908152602001600020549050919050565b610986610f0e565b73ffffffffffffffffffffffffffffffffffffffff166109a4610a06565b73ffffffffffffffffffffffffffffffffffffffff16146109fa576040517f08c379a00000000000000000000000000000000000000000000000000000000081526004016109f190612583565b60405180910390fd5b610a04600061156f565b565b6000600760009054906101000a900473ffffffffffffffffffffffffffffffffffffffff16905090565b606060018054610a3f9061234f565b80601f0160208091040260200160405190810160405280929190818152602001828054610a6b9061234f565b8015610ab85780601f10610a8d57610100808354040283529160200191610ab8565b820191906000526020600020905b815481529060010190602001808311610a9b57829003601f168201915b5050505050905090565b610ad4610acd610f0e565b8383611635565b5050565b610ae9610ae3610f0e565b83611235565b610b28576040517f08c379a0000000000000000000000000000000000000000000000000000000008152600401610b1f90612615565b60405180910390fd5b610b34848484846117a2565b50505050565b6060610b4582610ea2565b610b84576040517f08c379a0000000000000000000000000000000000000000000000000000000008152600401610b7b906127cb565b60405180910390fd5b6000600660008481526020019081526020016000208054610ba49061234f565b80601f0160208091040260200160405190810160405280929190818152602001828054610bd09061234f565b8015610c1d5780601f10610bf257610100808354040283529160200191610c1d565b820191906000526020600020905b815481529060010190602001808311610c0057829003601f168201915b505050505090506000610c2e6117fe565b9050600081511415610c44578192505050610c87565b600082511115610c79578082604051602001610c61929190612827565b60405160208183030381529060405292505050610c87565b610c8284611815565b925050505b919050565b606060405180608001604052806043815260200161303360439139905090565b6000600560008473ffffffffffffffffffffffffffffffffffffffff1673ffffffffffffffffffffffffffffffffffffffff16815260200190815260200160002060008373ffffffffffffffffffffffffffffffffffffffff1673ffffffffffffffffffffffffffffffffffffffff16815260200190815260200160002060009054906101000a900460ff16905092915050565b610d48610f0e565b73ffffffffffffffffffffffffffffffffffffffff16610d66610a06565b73ffffffffffffffffffffffffffffffffffffffff1614610dbc576040517f08c379a0000000000000000000000000000000000000000000000000000000008152600401610db390612583565b60405180910390fd5b600073ffffffffffffffffffffffffffffffffffffffff168173ffffffffffffffffffffffffffffffffffffffff161415610e2c576040517f08c379a0000000000000000000000000000000000000000000000000000000008152600401610e23906128bd565b60405180910390fd5b610e358161156f565b50565b60007f01ffc9a7000000000000000000000000000000000000000000000000000000007bffffffffffffffffffffffffffffffffffffffffffffffffffffffff1916827bffffffffffffffffffffffffffffffffffffffffffffffffffffffff1916149050919050565b60008073ffffffffffffffffffffffffffffffffffffffff166002600084815260200190815260200160002060009054906101000a900473ffffffffffffffffffffffffffffffffffffffff1673ffffffffffffffffffffffffffffffffffffffff1614159050919050565b600033905090565b816004600083815260200190815260200160002060006101000a81548173ffffffffffffffffffffffffffffffffffffffff021916908373ffffffffffffffffffffffffffffffffffffffff160217905550808273ffffffffffffffffffffffffffffffffffffffff16610f8983610814565b73ffffffffffffffffffffffffffffffffffffffff167f8c5be1e5ebec7d5bd14f71427d1e84f3dd0314c0f7b2291e5b200ac8c7c3b92560405160405180910390a45050565b6001816000016000828254019250508190555050565b600081600001549050919050565b600073ffffffffffffffffffffffffffffffffffffffff168273ffffffffffffffffffffffffffffffffffffffff161415611063576040517f08c379a000000000000000000000000000000000000000000000000000000000815260040161105a90612929565b60405180910390fd5b61106c81610ea2565b156110ac576040517f08c379a00000000000000000000000000000000000000000000000000000000081526004016110a390612995565b60405180910390fd5b6110b8600083836118bc565b6001600360008473ffffffffffffffffffffffffffffffffffffffff1673ffffffffffffffffffffffffffffffffffffffff168152602001908152602001600020600082825461110891906129e4565b92505081905550816002600083815260200190815260200160002060006101000a81548173ffffffffffffffffffffffffffffffffffffffff021916908373ffffffffffffffffffffffffffffffffffffffff160217905550808273ffffffffffffffffffffffffffffffffffffffff16600073ffffffffffffffffffffffffffffffffffffffff167fddf252ad1be2c89b69c2b068fc378daa952ba7f163c4a11628f55a4df523b3ef60405160405180910390a45050565b6111ca82610ea2565b611209576040517f08c379a000000000000000000000000000000000000000000000000000000000815260040161120090612aac565b60405180910390fd5b80600660008481526020019081526020016000209080519060200190611230929190611bbd565b505050565b600061124082610ea2565b61127f576040517f08c379a000000000000000000000000000000000000000000000000000000000815260040161127690612b3e565b60405180910390fd5b600061128a83610814565b90508073ffffffffffffffffffffffffffffffffffffffff168473ffffffffffffffffffffffffffffffffffffffff1614806112f957508373ffffffffffffffffffffffffffffffffffffffff166112e184610532565b73ffffffffffffffffffffffffffffffffffffffff16145b8061130a57506113098185610cac565b5b91505092915050565b8273ffffffffffffffffffffffffffffffffffffffff1661133382610814565b73ffffffffffffffffffffffffffffffffffffffff1614611389576040517f08c379a000000000000000000000000000000000000000000000000000000000815260040161138090612bd0565b60405180910390fd5b600073ffffffffffffffffffffffffffffffffffffffff168273ffffffffffffffffffffffffffffffffffffffff1614156113f9576040517f08c379a00000000000000000000000000000000000000000000000000000000081526004016113f090612c62565b60405180910390fd5b6114048383836118bc565b61140f600082610f16565b6001600360008573ffffffffffffffffffffffffffffffffffffffff1673ffffffffffffffffffffffffffffffffffffffff168152602001908152602001600020600082825461145f9190612c82565b925050819055506001600360008473ffffffffffffffffffffffffffffffffffffffff1673ffffffffffffffffffffffffffffffffffffffff16815260200190815260200160002060008282546114b691906129e4565b92505081905550816002600083815260200190815260200160002060006101000a81548173ffffffffffffffffffffffffffffffffffffffff021916908373ffffffffffffffffffffffffffffffffffffffff160217905550808273ffffffffffffffffffffffffffffffffffffffff168473ffffffffffffffffffffffffffffffffffffffff167fddf252ad1be2c89b69c2b068fc378daa952ba7f163c4a11628f55a4df523b3ef60405160405180910390a4505050565b6000600760009054906101000a900473ffffffffffffffffffffffffffffffffffffffff16905081600760006101000a81548173ffffffffffffffffffffffffffffffffffffffff021916908373ffffffffffffffffffffffffffffffffffffffff1602179055508173ffffffffffffffffffffffffffffffffffffffff168173ffffffffffffffffffffffffffffffffffffffff167f8be0079c531659141344cd1fd0a4f28419497f9722a3daafe3b4186f6b6457e060405160405180910390a35050565b8173ffffffffffffffffffffffffffffffffffffffff168373ffffffffffffffffffffffffffffffffffffffff1614156116a4576040517f08c379a000000000000000000000000000000000000000000000000000000000815260040161169b90612d02565b60405180910390fd5b80600560008573ffffffffffffffffffffffffffffffffffffffff1673ffffffffffffffffffffffffffffffffffffffff16815260200190815260200160002060008473ffffffffffffffffffffffffffffffffffffffff1673ffffffffffffffffffffffffffffffffffffffff16815260200190815260200160002060006101000a81548160ff0219169083151502179055508173ffffffffffffffffffffffffffffffffffffffff168373ffffffffffffffffffffffffffffffffffffffff167f17307eab39ab6107e8899845ad3d59bd9653f200f220920489ca2b5937696c31836040516117959190611d14565b60405180910390a3505050565b6117ad848484611313565b6117b9848484846118c1565b6117f8576040517f08c379a00000000000000000000000000000000000000000000000000000000081526004016117ef90612d94565b60405180910390fd5b50505050565b606060405180602001604052806000815250905090565b606061182082610ea2565b61185f576040517f08c379a000000000000000000000000000000000000000000000000000000000815260040161185690612e26565b60405180910390fd5b60006118696117fe565b9050600081511161188957604051806020016040528060008152506118b4565b8061189384611a49565b6040516020016118a4929190612827565b6040516020818303038152906040525b915050919050565b505050565b60006118e28473ffffffffffffffffffffffffffffffffffffffff16611baa565b15611a3c578373ffffffffffffffffffffffffffffffffffffffff1663150b7a0261190b610f0e565b8786866040518563ffffffff1660e01b815260040161192d9493929190612e9b565b6020604051808303816000875af192505050801561196957506040513d601f19601f820116820180604052508101906119669190612efc565b60015b6119ec573d8060008114611999576040519150601f19603f3d011682016040523d82523d6000602084013e61199e565b606091505b506000815114156119e4576040517f08c379a00000000000000000000000000000000000000000000000000000000081526004016119db90612d94565b60405180910390fd5b805181602001fd5b63150b7a0260e01b7bffffffffffffffffffffffffffffffffffffffffffffffffffffffff1916817bffffffffffffffffffffffffffffffffffffffffffffffffffffffff191614915050611a41565b600190505b949350505050565b60606000821415611a91576040518060400160405280600181526020017f30000000000000000000000000000000000000000000000000000000000000008152509050611ba5565b600082905060005b60008214611ac3578080611aac90612f29565b915050600a82611abc9190612fa1565b9150611a99565b60008167ffffffffffffffff811115611adf57611ade611f1f565b5b6040519080825280601f01601f191660200182016040528015611b115781602001600182028036833780820191505090505b5090505b60008514611b9e57600182611b2a9190612c82565b9150600a85611b399190612fd2565b6030611b4591906129e4565b60f81b818381518110611b5b57611b5a613003565b5b60200101907effffffffffffffffffffffffffffffffffffffffffffffffffffffffffffff1916908160001a905350600a85611b979190612fa1565b9450611b15565b8093505050505b919050565b600080823b905060008111915050919050565b828054611bc99061234f565b90600052602060002090601f016020900481019282611beb5760008555611c32565b82601f10611c0457805160ff1916838001178555611c32565b82800160010185558215611c32579182015b82811115611c31578251825591602001919060010190611c16565b5b509050611c3f9190611c43565b5090565b5b80821115611c5c576000816000905550600101611c44565b5090565b6000604051905090565b600080fd5b600080fd5b60007fffffffff0000000000000000000000000000000000000000000000000000000082169050919050565b611ca981611c74565b8114611cb457600080fd5b50565b600081359050611cc681611ca0565b92915050565b600060208284031215611ce257611ce1611c6a565b5b6000611cf084828501611cb7565b91505092915050565b60008115159050919050565b611d0e81611cf9565b82525050565b6000602082019050611d296000830184611d05565b92915050565b600081519050919050565b600082825260208201905092915050565b60005b83811015611d69578082015181840152602081019050611d4e565b83811115611d78576000848401525b50505050565b6000601f19601f8301169050919050565b6000611d9a82611d2f565b611da48185611d3a565b9350611db4818560208601611d4b565b611dbd81611d7e565b840191505092915050565b60006020820190508181036000830152611de28184611d8f565b905092915050565b6000819050919050565b611dfd81611dea565b8114611e0857600080fd5b50565b600081359050611e1a81611df4565b92915050565b600060208284031215611e3657611e35611c6a565b5b6000611e4484828501611e0b565b91505092915050565b600073ffffffffffffffffffffffffffffffffffffffff82169050919050565b6000611e7882611e4d565b9050919050565b611e8881611e6d565b82525050565b6000602082019050611ea36000830184611e7f565b92915050565b611eb281611e6d565b8114611ebd57600080fd5b50565b600081359050611ecf81611ea9565b92915050565b60008060408385031215611eec57611eeb611c6a565b5b6000611efa85828601611ec0565b9250506020611f0b85828601611e0b565b9150509250929050565b600080fd5b600080fd5b7f4e487b7100000000000000000000000000000000000000000000000000000000600052604160045260246000fd5b611f5782611d7e565b810181811067ffffffffffffffff82111715611f7657611f75611f1f565b5b80604052505050565b6000611f89611c60565b9050611f958282611f4e565b919050565b600067ffffffffffffffff821115611fb557611fb4611f1f565b5b611fbe82611d7e565b9050602081019050919050565b82818337600083830152505050565b6000611fed611fe884611f9a565b611f7f565b90508281526020810184848401111561200957612008611f1a565b5b612014848285611fcb565b509392505050565b600082601f83011261203157612030611f15565b5b8135612041848260208601611fda565b91505092915050565b6000806040838503121561206157612060611c6a565b5b600061206f85828601611ec0565b925050602083013567ffffffffffffffff8111156120905761208f611c6f565b5b61209c8582860161201c565b9150509250929050565b6120af81611dea565b82525050565b60006020820190506120ca60008301846120a6565b92915050565b6000806000606084860312156120e9576120e8611c6a565b5b60006120f786828701611ec0565b935050602061210886828701611ec0565b925050604061211986828701611e0b565b9150509250925092565b60006020828403121561213957612138611c6a565b5b600061214784828501611ec0565b91505092915050565b61215981611cf9565b811461216457600080fd5b50565b60008135905061217681612150565b92915050565b6000806040838503121561219357612192611c6a565b5b60006121a185828601611ec0565b92505060206121b285828601612167565b9150509250929050565b600067ffffffffffffffff8211156121d7576121d6611f1f565b5b6121e082611d7e565b9050602081019050919050565b60006122006121fb846121bc565b611f7f565b90508281526020810184848401111561221c5761221b611f1a565b5b612227848285611fcb565b509392505050565b600082601f83011261224457612243611f15565b5b81356122548482602086016121ed565b91505092915050565b6000806000806080858703121561227757612276611c6a565b5b600061228587828801611ec0565b945050602061229687828801611ec0565b93505060406122a787828801611e0b565b925050606085013567ffffffffffffffff8111156122c8576122c7611c6f565b5b6122d48782880161222f565b91505092959194509250565b600080604083850312156122f7576122f6611c6a565b5b600061230585828601611ec0565b925050602061231685828601611ec0565b9150509250929050565b7f4e487b7100000000000000000000000000000000000000000000000000000000600052602260045260246000fd5b6000600282049050600182168061236757607f821691505b6020821081141561237b5761237a612320565b5b50919050565b7f4552433732313a20617070726f76656420717565727920666f72206e6f6e657860008201527f697374656e7420746f6b656e0000000000000000000000000000000000000000602082015250565b60006123dd602c83611d3a565b91506123e882612381565b604082019050919050565b6000602082019050818103600083015261240c816123d0565b9050919050565b7f4552433732313a20617070726f76616c20746f2063757272656e74206f776e6560008201527f7200000000000000000000000000000000000000000000000000000000000000602082015250565b600061246f602183611d3a565b915061247a82612413565b604082019050919050565b6000602082019050818103600083015261249e81612462565b9050919050565b7f4552433732313a20617070726f76652063616c6c6572206973206e6f74206f7760008201527f6e6572206e6f7220617070726f76656420666f7220616c6c0000000000000000602082015250565b6000612501603883611d3a565b915061250c826124a5565b604082019050919050565b60006020820190508181036000830152612530816124f4565b9050919050565b7f4f776e61626c653a2063616c6c6572206973206e6f7420746865206f776e6572600082015250565b600061256d602083611d3a565b915061257882612537565b602082019050919050565b6000602082019050818103600083015261259c81612560565b9050919050565b7f4552433732313a207472616e736665722063616c6c6572206973206e6f74206f60008201527f776e6572206e6f7220617070726f766564000000000000000000000000000000602082015250565b60006125ff603183611d3a565b915061260a826125a3565b604082019050919050565b6000602082019050818103600083015261262e816125f2565b9050919050565b7f4552433732313a206f776e657220717565727920666f72206e6f6e657869737460008201527f656e7420746f6b656e0000000000000000000000000000000000000000000000602082015250565b6000612691602983611d3a565b915061269c82612635565b604082019050919050565b600060208201905081810360008301526126c081612684565b9050919050565b7f4552433732313a2062616c616e636520717565727920666f7220746865207a6560008201527f726f206164647265737300000000000000000000000000000000000000000000602082015250565b6000612723602a83611d3a565b915061272e826126c7565b604082019050919050565b6000602082019050818103600083015261275281612716565b9050919050565b7f45524337323155524953746f726167653a2055524920717565727920666f722060008201527f6e6f6e6578697374656e7420746f6b656e000000000000000000000000000000602082015250565b60006127b5603183611d3a565b91506127c082612759565b604082019050919050565b600060208201905081810360008301526127e4816127a8565b9050919050565b600081905092915050565b600061280182611d2f565b61280b81856127eb565b935061281b818560208601611d4b565b80840191505092915050565b600061283382856127f6565b915061283f82846127f6565b91508190509392505050565b7f4f776e61626c653a206e6577206f776e657220697320746865207a65726f206160008201527f6464726573730000000000000000000000000000000000000000000000000000602082015250565b60006128a7602683611d3a565b91506128b28261284b565b604082019050919050565b600060208201905081810360008301526128d68161289a565b9050919050565b7f4552433732313a206d696e7420746f20746865207a65726f2061646472657373600082015250565b6000612913602083611d3a565b915061291e826128dd565b602082019050919050565b6000602082019050818103600083015261294281612906565b9050919050565b7f4552433732313a20746f6b656e20616c7265616479206d696e74656400000000600082015250565b600061297f601c83611d3a565b915061298a82612949565b602082019050919050565b600060208201905081810360008301526129ae81612972565b9050919050565b7f4e487b7100000000000000000000000000000000000000000000000000000000600052601160045260246000fd5b60006129ef82611dea565b91506129fa83611dea565b9250827fffffffffffffffffffffffffffffffffffffffffffffffffffffffffffffffff03821115612a2f57612a2e6129b5565b5b828201905092915050565b7f45524337323155524953746f726167653a2055524920736574206f66206e6f6e60008201527f6578697374656e7420746f6b656e000000000000000000000000000000000000602082015250565b6000612a96602e83611d3a565b9150612aa182612a3a565b604082019050919050565b60006020820190508181036000830152612ac581612a89565b9050919050565b7f4552433732313a206f70657261746f7220717565727920666f72206e6f6e657860008201527f697374656e7420746f6b656e0000000000000000000000000000000000000000602082015250565b6000612b28602c83611d3a565b9150612b3382612acc565b604082019050919050565b60006020820190508181036000830152612b5781612b1b565b9050919050565b7f4552433732313a207472616e73666572206f6620746f6b656e2074686174206960008201527f73206e6f74206f776e0000000000000000000000000000000000000000000000602082015250565b6000612bba602983611d3a565b9150612bc582612b5e565b604082019050919050565b60006020820190508181036000830152612be981612bad565b9050919050565b7f4552433732313a207472616e7366657220746f20746865207a65726f2061646460008201527f7265737300000000000000000000000000000000000000000000000000000000602082015250565b6000612c4c602483611d3a565b9150612c5782612bf0565b604082019050919050565b60006020820190508181036000830152612c7b81612c3f565b9050919050565b6000612c8d82611dea565b9150612c9883611dea565b925082821015612cab57612caa6129b5565b5b828203905092915050565b7f4552433732313a20617070726f766520746f2063616c6c657200000000000000600082015250565b6000612cec601983611d3a565b9150612cf782612cb6565b602082019050919050565b60006020820190508181036000830152612d1b81612cdf565b9050919050565b7f4552433732313a207472616e7366657220746f206e6f6e20455243373231526560008201527f63656976657220696d706c656d656e7465720000000000000000000000000000602082015250565b6000612d7e603283611d3a565b9150612d8982612d22565b604082019050919050565b60006020820190508181036000830152612dad81612d71565b9050919050565b7f4552433732314d657461646174613a2055524920717565727920666f72206e6f60008201527f6e6578697374656e7420746f6b656e0000000000000000000000000000000000602082015250565b6000612e10602f83611d3a565b9150612e1b82612db4565b604082019050919050565b60006020820190508181036000830152612e3f81612e03565b9050919050565b600081519050919050565b600082825260208201905092915050565b6000612e6d82612e46565b612e778185612e51565b9350612e87818560208601611d4b565b612e9081611d7e565b840191505092915050565b6000608082019050612eb06000830187611e7f565b612ebd6020830186611e7f565b612eca60408301856120a6565b8181036060830152612edc8184612e62565b905095945050505050565b600081519050612ef681611ca0565b92915050565b600060208284031215612f1257612f11611c6a565b5b6000612f2084828501612ee7565b91505092915050565b6000612f3482611dea565b91507fffffffffffffffffffffffffffffffffffffffffffffffffffffffffffffffff821415612f6757612f666129b5565b5b600182019050919050565b7f4e487b7100000000000000000000000000000000000000000000000000000000600052601260045260246000fd5b6000612fac82611dea565b9150612fb783611dea565b925082612fc757612fc6612f72565b5b828204905092915050565b6000612fdd82611dea565b9150612fe883611dea565b925082612ff857612ff7612f72565b5b828206905092915050565b7f4e487b7100000000000000000000000000000000000000000000000000000000600052603260045260246000fdfe68747470733a2f2f697066732e696f2f697066732f516d526f525a70335433525975686e4562385658385550646e654e68626f6d57577834777a564d4e314145783873a26469706673582212200a4cc33a6d158da9a6c317d97a108fe05c79b15c4d78c281c9993720925c9eb064736f6c634300080a0033",
  "immutableReferences": {},
  "source": "// SPDX-License-Identifier: MIT\npragma solidity ^0.8.10;\n\nimport \"@openzeppelin/contracts/token/ERC721/extensions/ERC721URIStorage.sol\";\nimport \"@openzeppelin/contracts/access/Ownable.sol\";\nimport \"@openzeppelin/contracts/utils/Counters.sol\";\n\ncontract MyNFT is ERC721URIStorage, Ownable {\n\n    using Counters for Counters.Counter;\n    Counters.Counter private _tokenIds;\n\n    constructor() ERC721(\"My NFT Contract\", \"MYNFTCTRCT\") {}\n\n    function totalSupply() public view returns (uint256) {\n        return _tokenIds.current();\n    }\n\n    function contractURI() public pure returns (string memory) {\n        return \"https://ipfs.io/ipfs/QmRoRZp3T3RYuhnEb8VX8UPdneNhbomWWx4wzVMN1AEx8s\";\n    }\n\n    function mintItem(address minter, string memory tokenURI)\n         public onlyOwner returns (uint256) {\n\n             _tokenIds.increment();\n             uint256 newItemId = _tokenIds.current();\n             _mint(minter, newItemId);\n             _setTokenURI(newItemId, tokenURI);\n             return newItemId;\n\n    }\n\n}\n",
  "sourcePath": "/Users/alex/Documents/Courses/projects_web3/hello-nft/contracts/MyNFT.sol",
  "compiler": {
    "name": "solc",
    "version": "0.8.10+commit.fc410830.Emscripten.clang"
  },
  "schemaVersion": "3.4.3",
  "updatedAt": "2021-12-10T19:16:59.574Z",
  "networkType": "ethereum",
  "devdoc": {
    "kind": "dev",
    "methods": {
      "approve(address,uint256)": {
        "details": "See {IERC721-approve}."
      },
      "balanceOf(address)": {
        "details": "See {IERC721-balanceOf}."
      },
      "getApproved(uint256)": {
        "details": "See {IERC721-getApproved}."
      },
      "isApprovedForAll(address,address)": {
        "details": "See {IERC721-isApprovedForAll}."
      },
      "name()": {
        "details": "See {IERC721Metadata-name}."
      },
      "owner()": {
        "details": "Returns the address of the current owner."
      },
      "ownerOf(uint256)": {
        "details": "See {IERC721-ownerOf}."
      },
      "renounceOwnership()": {
        "details": "Leaves the contract without owner. It will not be possible to call `onlyOwner` functions anymore. Can only be called by the current owner. NOTE: Renouncing ownership will leave the contract without an owner, thereby removing any functionality that is only available to the owner."
      },
      "safeTransferFrom(address,address,uint256)": {
        "details": "See {IERC721-safeTransferFrom}."
      },
      "safeTransferFrom(address,address,uint256,bytes)": {
        "details": "See {IERC721-safeTransferFrom}."
      },
      "setApprovalForAll(address,bool)": {
        "details": "See {IERC721-setApprovalForAll}."
      },
      "supportsInterface(bytes4)": {
        "details": "See {IERC165-supportsInterface}."
      },
      "symbol()": {
        "details": "See {IERC721Metadata-symbol}."
      },
      "tokenURI(uint256)": {
        "details": "See {IERC721Metadata-tokenURI}."
      },
      "transferFrom(address,address,uint256)": {
        "details": "See {IERC721-transferFrom}."
      },
      "transferOwnership(address)": {
        "details": "Transfers ownership of the contract to a new account (`newOwner`). Can only be called by the current owner."
      }
    },
    "version": 1
  },
  "userdoc": {
    "kind": "user",
    "methods": {},
    "version": 1
  }
}